:0400000000EF88F095
:100008009A449A449A449A444000984440009A4436
:100018009A449A449A449A449A449A449A449A44E8
:100028009A444000400040009A449A449A449A44B2
:100038009A449A449A449A449A449A449A449A44C8
:100048009A449A449A449A44400040009A449A44F4
:100058009A449A449A4440009A449A449A449A4446
:100068009A449A449A449A449A449A449A449A4498
:100078009A449A449A449A4440009A449A449A4426
:100088009A449A449A449A449A449A449A449A4478
:100098009A449A449A449A4440009A444000400042
:1000A8009A449A449A449A449A449A449A449A4458
:1000B8009A449A449A449A449A449A449A449A4448
:1000C8009A449A449A449A449A449A449A449A4438
:1000D8009A449A449A449A449A449A449A449A4428
:1000E80040009A449A449A4440004000400040002E
:0A00F8009A449A449A449A44FF0087
:02FFFE00000001
:020000040001F9
:100000001000100310061009100C100F8B7EE33F38
:10001000FEE32FFEAF3C20D60061762007EBF6AF63
:10002000065020081B0D0AFED600813C05D6063E70
:10003000D60066D60643EBF8B02000ED52355224C8
:10004000AFD6004728E30DB0E24E4A03E3350DC2B8
:1000500034A0E4AF66FB882D101276FA086BFB38EB
:10006000F0202056E37F66FB882D101556FAE739FD
:10007000F076FA106BFBAFD605FAA0E4D600813813
:10008000E24E4A03F3530DD23480E4AF31F0B0FBBB
:100090008CB6FC684C025C057C411C03CC02311020
:1000A000B003D2668D00B5FFFFFFFFFFFFFFFFFF2C
:1000B000FFFFFFFFFF9F7603016B574C07D605BF7D
:1000C0007B17EBF94908D605BF7B026BF900E449C1
:1000D0000C490AB009E60B200DB00CCC00DC204C1A
:1000E0000F5C20D605BF6B0C2E2A09E408045905C5
:1000F000490859093C02D6063E480858092CFFD247
:1001000024A0E4D224C2242EEB0A023512242904AE
:100110003905B0FC3100DC68E6F8B2CECA07B0EAB7
:10012000BC68E6F8B668EA78EB3110E406FEE4074E
:10013000FF98FC56E902FC80D6063C88E3C23C02EC
:10014000936CFF7CFFC238A0E81C1FA6E30A7B5B10
:10015000A6E3307B18A6E3407B3FB0E052136B046C
:100160000219120856E3E0F0E306E3040D02330639
:10017000E35F2C05C2E2A0E2C23228EED4E23110E5
:100180008BC376FC026BA2D604DD6B86D6063C8858
:10019000E3C29CD603926B6AAFC218A0E80C075268
:1001A0000326E00406E308C0E38BB5023FE303E364
:1001B0001FF331F3F08BC950E250E350E050E18B74
:1001C0000B50E250E370E970E8D601FAD602558B85
:1001D000AFD6000E50E050E170E370E2D601FA8B2A
:1001E0004448EA58EBC228A0E8D605D322236BF591
:1001F00012226B65A8E4B8E58B573100CECA05A67C
:10020000FF408B08A4E4FEEB03A4E5FF31108B73E1
:1002100050E050E1A40AFEEB03A40BFFFB6750E2A1
:1002200050E3D6026EE4FE06E4FF078BA2D6000E72
:10023000D6026E8B3900EFB1EFC238A0E88B33D60F
:1002400005FA023512248B2626E12036E0000D80C7
:10025000EA42006B3088E098E1AFD605D3A6E341CF
:100260007BEDA6E35ABBE8023306E3A0280C00EFBF
:10027000F3F200EFF3F3A6EF403B0A440C0CEBD98A
:10028000A40DEFBBD4D604A0D6063CC22C229232D9
:100290008338E928E8FC80D604E99C4A8C06D60518
:1002A0005676FC026B0AD6055638172816D604E98E
:1002B000D6002BB0FC8D0129D605D36B4D8B90D683
:1002C00005D39B8B56E30FD60638D605D39B3B1C34
:1002D0000AD603148BF4D6000EB0E0B0E1EC112284
:1002E000133202FB0402131202EF11EFFE11EF00B2
:1002F000EF10E110E0EAE8AFD60636D605D31B0DC5
:10030000A6E3417B0526E3477B0380EAAF1C10D6BA
:1003100003148BE7B0E056E30F8B08E31FFEE30FF7
:10032000FEB0E3B0E2EC11CFFEC1EF00EFC1EFFB96
:100330000402311220C0E2C0E3EAEDAFD60061DF73
:10034000D605D46BC5A6E3226B2A8BF0D605FDA893
:1003500008B80908E618E7D604CF8B03D604DDA257
:1003600046EB02A257BBF56B0DC2E8A6EE286B0662
:1003700078E168E0A0E8AF380E0D38EAA40CE3EBB2
:1003800005A90EB90FAF280E380FD60381A8E2B821
:10039000E3AF66FB882B0C3C04D6063EB4F0E302C8
:1003A000336BD338FC46E3FE3EEBC9AFD60049EED3
:1003B0003E3AF9AF480E580FB0EED603ACD6000E59
:1003C00058EB48EA80EA80EADF3273326278E3FB76
:1003D0003BEA04ECFD2CFFEE60EED603AC60EE6B66
:1003E00054DB2F58EB48EA08E418E5225E36E4FFB8
:1003F000D6004FD230A0E0A404147BF4A405157BF2
:10040000EF090419052E6B4100E28B29EA01AFEEDA
:10041000EEEE5805480418E508E4025E16E400D63E
:10042000020449045905C23080E0D60087A24ABBC5
:10043000F5A25BBBF1D22AA0EAD27A480E580FA0EF
:10044000EAD60049D23A3E3AF6AF00EFE60D67A889
:100450000CBC68200DD6005428E33C03D6063EA20F
:10046000326B36C23CA2326B3742226BE8A6E27F87
:100470006BE3A6E20A6BDE580D480C3C0DB2326D00
:100480000027D6007FA60DE7BB084E4AC6A40DEF95
:10049000BBC13C07D600668BBC000DA40DEB3BB581
:1004A000E60D682C0D8BD0D6000EE3EFFE233FFE49
:1004B000332F1B0AAB0442326B02E0EEE0EEE0EEBB
:1004C000FB02A0E8E33FFEAFE6FC0280EA80EAC25E
:1004D0006AA0EAC27AA0EAE8E652E7EEAFC23AA022
:1004E000EA3E3AF98BE9D6000EEC10B0E1B0E0122A
:1004F000331222121140E1120040E0EAF200EFF361
:10050000F000EFF3F112336B08D605443CEEFE8B9E
:10051000173CEEFE2CF0532FEB0E06E3066B09435F
:100520002FEB0506E306FAEC06E3412C0530E2FF6B
:10053000E33FD60545E33FD6054400EFE33FD6054C
:1005400045D6000E0DF0E356E30F2C09A22316E367
:100550003040E38D0061C238D60061C238A0E83E69
:10056000DBF4AF01C102550248025101E1025A0217
:10057000BF02B8039202390235022D000E061303A2
:100580007A03770627007701D10210034C061C027C
:100590003F1018031B02D604A70182101B101E0473
:1005A000E6033F0015002B0556051102F8044A0624
:1005B0002F04DD03B400F404C80112060401B7DF00
:1005C0004E6B0FC23460E3D23460E3C224D23412E3
:1005D00032CFAFCFAEAA03E33B0DC23AA0EA7B17FE
:1005E000A6E3206BEEA6E3607B0326E320A6E330C0
:1005F0001B05A6E33A1B024233AFD6000EE35FFEB3
:10060000E34FFEAFD605FAE31FFEE30FFED4E03161
:10061000108B20D6061C4222DB02A0E8D6000E601A
:10062000E260E3A0E28B0CD605FDD600418B0428E6
:10063000E638E78D026EB0E3B0E28BF7B0E356ED3B
:10064000F042D3C23CDEA6E3FEAF2187204154A096
:10065000627A6F24BA27E15BD30F60100D16280E63
:100660002A5110110C0016280F600E2C8F47CF9BBB
:1006700054CF351CE010110F601650609D49C634F0
:10068000E884544845CE1C1DC14A41895355C234A3
:10069000FFE028145480C034F07A9B4C45D4A680E7
:1006A000BD34ED137184DE3525559AC00C81351E9D
:1006B00080BD34DC2E0EE11D83BA3BB082A27B9D4F
:1006C0005052494ED483BA2351EE6883BBE71D8351
:1006D000AC225A234182BA4285A221604E748848D6
:1006E0004558A83516254434A7170F6324AD611764
:1006F00020548C5245D4835552CEE015161D608689
:1007000053544FD0E02D855255CE3B56854E45D79C
:10071000E02B845245CD1D9D49CE865055D4A01066
:1007200063A010E6243FA027E15A81AC3462131184
:1007300082AC4E3B818C4C4953D428E80CFF170CFB
:100740007F673B5A3446E00301030216280E230A52
:10075000740D0B03281C6E280F6A2024A02163242B
:10076000A25B294A0E0E161D1D34258EBC84BD0BBE
:10077000067684BE0B05710B046E89BE84BD0B0327
:10078000670B016480BD0B0267340162340297ACD1
:1007900085AD3414176481AB340E85AB340A185A16
:1007A00086AD340417580D2F342485AA34201A5AE4
:1007B00092AF170F6734170F711B174E17340F0FB7
:1007C000651B4794DC57170F634F170F60538A550B
:1007D0005352A833B480A92E2F89414E44A80C3C13
:1007E00033AA5287C00C4733E50D4C84DE33DF61FA
:1007F000A2122F83A5262FC12F80A8339380A92F63
:1008000000000000000000000000000000000000E8
:1008100000000000000000000000000000000000D8
:1008200000000000000000000000000000000000C8
:1008300000000000000000000000000000000000B8
:1010000025EF89F0080E0001B16F000E0401186F82
:101010001969C968000E086F0969C7683F0E0201A7
:10102000046F04010097C696C10E436F3A0E446FD9
:10103000010E456F000E476F4691468B468F009517
:101040000185C68400910181C68000930183C68218
:101050002095C294CA94000E106F000EC06E000E50
:10106000C86E009BBE9AC69A2091C290CA902093E7
:10107000C292CA92010E0201D56FA00ED46FD1891F
:10108000D18B0401009FC68E070E0201766F04010A
:10109000009DBE8CC69C260E0201076FD28F020EE9
:1010A000616F1F0E636F1E0E646F010E666F1D0E63
:1010B000676F1C0E686F000E0001D56F000ED86FB1
:1010C0007F0ED96F7F0EDA6F7F0EDB6F020EDC6F43
:1010D000040EDD6F100EDE6F400EDF6F000ED76F57
:1010E0008A0ED66F010ED56F020ED86F030ED96F20
:1010F000060EDA6F050EDB6F010EDC6F040EDD6F7E
:10110000100EDE6F800EDF6F000ED76F820ED66F6F
:10111000020ED56F020ED86F030ED96F060EDA6F6E
:10112000070EDB6F010EDC6F080EDD6F100EDE6F39
:10113000400EDF6F000ED76F820ED66F030ED56F95
:10114000020ED86F030ED96F060EDA6F070EDB6F33
:10115000020EDC6F080EDD6F200EDE6F800EDF6F7B
:10116000000ED76F820ED66F000E046E000E036E57
:10117000000E0324D96E100E0420DA6E000EDF6E0E
:10118000034A042A04BEF4D7100E045CD8A0F0D79A
:10119000550E0401596FAA0E596F5991080E5D6FD3
:1011A000000E5E6F000E5F6F550E596FAA0E596FDD
:1011B0005981AE9A9E8A090E026E1E0E016EE40ED1
:1011C000E82EFED7012EFCD7022EFAD700D0010E52
:1011D000F86ED68EC284CEB0FED70001D4A304D060
:1011E000C76AD150F76E24D0D4A515D0CEA20AD0AC
:1011F000C76AF6C4D9F4D1500F0B1009DA6EDFC4F8
:10120000BFF41FD0F6C4D9F4D1500F0B1009DA6E19
:10121000CFC4DFF416D0D4A70FD0FD0EF618D8A493
:1012200005D0000EC76E020EBF6E0BD0C76AF76AFC
:101230000800F5C4BFF405D0CEA203D0000EC76EDF
:10124000BF68CEA0FED7C768C6D70401080E5D6F81
:0E125000000E5E6F000E5F6F000102EF88F06F
:0A126000CFC4F6F4AE9A110011009D
:020000040020DA
:10000000FF0FFF0FFF0FFF0FFF0FFF0FFF0FFF0F80
:10001000FF0FFF0FFF0FFF0FFF0FFF0FFF0FFF0F70
:10002000FF0FFF0FFF0FFF0FFF0FFF0FFF0FFF0F60
:10003000FF0FFF0FFF0FFF0FFF0FFF0FFF0FFF0F50
:020000040030CA
:0A0000008CFFFFF79FFFFFFFFFFFDB
:00000001FF
